{
  "_format": "hh-sol-artifact-1",
  "contractName": "Project",
  "sourceName": "contracts/Project.sol",
  "abi": [
    {
      "inputs": [
        {
          "internalType": "address payable",
          "name": "projectStarter",
          "type": "address"
        },
        {
          "internalType": "string",
          "name": "projectTitle",
          "type": "string"
        },
        {
          "internalType": "string",
          "name": "projectDesc",
          "type": "string"
        },
        {
          "internalType": "uint256",
          "name": "fundRaisingDeadline",
          "type": "uint256"
        },
        {
          "internalType": "uint256",
          "name": "goalAmount",
          "type": "uint256"
        }
      ],
      "stateMutability": "nonpayable",
      "type": "constructor"
    },
    {
      "anonymous": false,
      "inputs": [
        {
          "indexed": false,
          "internalType": "address",
          "name": "recipient",
          "type": "address"
        }
      ],
      "name": "CreatorPaid",
      "type": "event"
    },
    {
      "anonymous": false,
      "inputs": [
        {
          "indexed": false,
          "internalType": "address",
          "name": "contributor",
          "type": "address"
        },
        {
          "indexed": false,
          "internalType": "uint256",
          "name": "amount",
          "type": "uint256"
        },
        {
          "indexed": false,
          "internalType": "uint256",
          "name": "currentTotal",
          "type": "uint256"
        }
      ],
      "name": "FundingReceived",
      "type": "event"
    },
    {
      "inputs": [],
      "name": "amountGoal",
      "outputs": [
        {
          "internalType": "uint256",
          "name": "",
          "type": "uint256"
        }
      ],
      "stateMutability": "view",
      "type": "function"
    },
    {
      "inputs": [],
      "name": "checkIfFundingCompleteOrExpired",
      "outputs": [],
      "stateMutability": "nonpayable",
      "type": "function"
    },
    {
      "inputs": [],
      "name": "completeAt",
      "outputs": [
        {
          "internalType": "uint256",
          "name": "",
          "type": "uint256"
        }
      ],
      "stateMutability": "view",
      "type": "function"
    },
    {
      "inputs": [],
      "name": "contribute",
      "outputs": [],
      "stateMutability": "payable",
      "type": "function"
    },
    {
      "inputs": [
        {
          "internalType": "address",
          "name": "",
          "type": "address"
        }
      ],
      "name": "contributions",
      "outputs": [
        {
          "internalType": "uint256",
          "name": "",
          "type": "uint256"
        }
      ],
      "stateMutability": "view",
      "type": "function"
    },
    {
      "inputs": [],
      "name": "creator",
      "outputs": [
        {
          "internalType": "address payable",
          "name": "",
          "type": "address"
        }
      ],
      "stateMutability": "view",
      "type": "function"
    },
    {
      "inputs": [],
      "name": "currentBalance",
      "outputs": [
        {
          "internalType": "uint256",
          "name": "",
          "type": "uint256"
        }
      ],
      "stateMutability": "view",
      "type": "function"
    },
    {
      "inputs": [],
      "name": "description",
      "outputs": [
        {
          "internalType": "string",
          "name": "",
          "type": "string"
        }
      ],
      "stateMutability": "view",
      "type": "function"
    },
    {
      "inputs": [],
      "name": "getDetails",
      "outputs": [
        {
          "internalType": "address payable",
          "name": "projectStarter",
          "type": "address"
        },
        {
          "internalType": "string",
          "name": "projectTitle",
          "type": "string"
        },
        {
          "internalType": "string",
          "name": "projectDesc",
          "type": "string"
        },
        {
          "internalType": "uint256",
          "name": "deadline",
          "type": "uint256"
        },
        {
          "internalType": "enum Project.State",
          "name": "currentState",
          "type": "uint8"
        },
        {
          "internalType": "uint256",
          "name": "currentAmount",
          "type": "uint256"
        },
        {
          "internalType": "uint256",
          "name": "goalAmount",
          "type": "uint256"
        }
      ],
      "stateMutability": "view",
      "type": "function"
    },
    {
      "inputs": [],
      "name": "getRefund",
      "outputs": [
        {
          "internalType": "bool",
          "name": "",
          "type": "bool"
        }
      ],
      "stateMutability": "nonpayable",
      "type": "function"
    },
    {
      "inputs": [],
      "name": "raiseBy",
      "outputs": [
        {
          "internalType": "uint256",
          "name": "",
          "type": "uint256"
        }
      ],
      "stateMutability": "view",
      "type": "function"
    },
    {
      "inputs": [],
      "name": "state",
      "outputs": [
        {
          "internalType": "enum Project.State",
          "name": "",
          "type": "uint8"
        }
      ],
      "stateMutability": "view",
      "type": "function"
    },
    {
      "inputs": [],
      "name": "title",
      "outputs": [
        {
          "internalType": "string",
          "name": "",
          "type": "string"
        }
      ],
      "stateMutability": "view",
      "type": "function"
    }
  ],
  "bytecode": "0x60806040526000600760006101000a81548160ff021916908360028111156200002d576200002c620000ea565b5b02179055503480156200003f57600080fd5b50604051620017a2380380620017a283398181016040528101906200006591906200034c565b846000806101000a81548173ffffffffffffffffffffffffffffffffffffffff021916908373ffffffffffffffffffffffffffffffffffffffff1602179055508360059081620000b6919062000653565b508260069081620000c8919062000653565b508060018190555081600481905550600060038190555050505050506200073a565b7f4e487b7100000000000000000000000000000000000000000000000000000000600052602160045260246000fd5b6000604051905090565b600080fd5b600080fd5b600073ffffffffffffffffffffffffffffffffffffffff82169050919050565b60006200015a826200012d565b9050919050565b6200016c816200014d565b81146200017857600080fd5b50565b6000815190506200018c8162000161565b92915050565b600080fd5b600080fd5b6000601f19601f8301169050919050565b7f4e487b7100000000000000000000000000000000000000000000000000000000600052604160045260246000fd5b620001e7826200019c565b810181811067ffffffffffffffff82111715620002095762000208620001ad565b5b80604052505050565b60006200021e62000119565b90506200022c8282620001dc565b919050565b600067ffffffffffffffff8211156200024f576200024e620001ad565b5b6200025a826200019c565b9050602081019050919050565b60005b83811015620002875780820151818401526020810190506200026a565b60008484015250505050565b6000620002aa620002a48462000231565b62000212565b905082815260208101848484011115620002c957620002c862000197565b5b620002d684828562000267565b509392505050565b600082601f830112620002f657620002f562000192565b5b81516200030884826020860162000293565b91505092915050565b6000819050919050565b620003268162000311565b81146200033257600080fd5b50565b60008151905062000346816200031b565b92915050565b600080600080600060a086880312156200036b576200036a62000123565b5b60006200037b888289016200017b565b955050602086015167ffffffffffffffff8111156200039f576200039e62000128565b5b620003ad88828901620002de565b945050604086015167ffffffffffffffff811115620003d157620003d062000128565b5b620003df88828901620002de565b9350506060620003f28882890162000335565b9250506080620004058882890162000335565b9150509295509295909350565b600081519050919050565b7f4e487b7100000000000000000000000000000000000000000000000000000000600052602260045260246000fd5b600060028204905060018216806200046557607f821691505b6020821081036200047b576200047a6200041d565b5b50919050565b60008190508160005260206000209050919050565b60006020601f8301049050919050565b600082821b905092915050565b600060088302620004e57fffffffffffffffffffffffffffffffffffffffffffffffffffffffffffffffff82620004a6565b620004f18683620004a6565b95508019841693508086168417925050509392505050565b6000819050919050565b6000620005346200052e620005288462000311565b62000509565b62000311565b9050919050565b6000819050919050565b620005508362000513565b620005686200055f826200053b565b848454620004b3565b825550505050565b600090565b6200057f62000570565b6200058c81848462000545565b505050565b5b81811015620005b457620005a860008262000575565b60018101905062000592565b5050565b601f8211156200060357620005cd8162000481565b620005d88462000496565b81016020851015620005e8578190505b62000600620005f78562000496565b83018262000591565b50505b505050565b600082821c905092915050565b6000620006286000198460080262000608565b1980831691505092915050565b600062000643838362000615565b9150826002028217905092915050565b6200065e8262000412565b67ffffffffffffffff8111156200067a5762000679620001ad565b5b6200068682546200044c565b62000693828285620005b8565b600060209050601f831160018114620006cb5760008415620006b6578287015190505b620006c2858262000635565b86555062000732565b601f198416620006db8662000481565b60005b828110156200070557848901518255600182019150602085019450602081019050620006de565b8683101562000725578489015162000721601f89168262000615565b8355505b6001600288020188555050505b505050505050565b611058806200074a6000396000f3fe6080604052600436106100c25760003560e01c80637284e4161161007f578063c19d93fb11610059578063c19d93fb14610248578063ce845d1d14610273578063d7bb99ba1461029e578063fbbf93a0146102a8576100c2565b80637284e416146101db57806386f3258614610206578063b2d5ae441461021d576100c2565b806302d05d3f146100c75780630785001c146100f257806337f944cc1461011d57806342e94c90146101485780634a79d50c146101855780634c4cea5a146101b0575b600080fd5b3480156100d357600080fd5b506100dc6102d9565b6040516100e99190610b86565b60405180910390f35b3480156100fe57600080fd5b506101076102fd565b6040516101149190610bba565b60405180910390f35b34801561012957600080fd5b50610132610303565b60405161013f9190610bba565b60405180910390f35b34801561015457600080fd5b5061016f600480360381019061016a9190610c18565b610309565b60405161017c9190610bba565b60405180910390f35b34801561019157600080fd5b5061019a610321565b6040516101a79190610cd5565b60405180910390f35b3480156101bc57600080fd5b506101c56103af565b6040516101d29190610bba565b60405180910390f35b3480156101e757600080fd5b506101f06103b5565b6040516101fd9190610cd5565b60405180910390f35b34801561021257600080fd5b5061021b610443565b005b34801561022957600080fd5b506102326104c7565b60405161023f9190610d12565b60405180910390f35b34801561025457600080fd5b5061025d610692565b60405161026a9190610da4565b60405180910390f35b34801561027f57600080fd5b506102886106a5565b6040516102959190610bba565b60405180910390f35b6102a66106ab565b005b3480156102b457600080fd5b506102bd61083c565b6040516102d09796959493929190610dbf565b60405180910390f35b60008054906101000a900473ffffffffffffffffffffffffffffffffffffffff1681565b60015481565b60045481565b60086020528060005260406000206000915090505481565b6005805461032e90610e6b565b80601f016020809104026020016040519081016040528092919081815260200182805461035a90610e6b565b80156103a75780601f1061037c576101008083540402835291602001916103a7565b820191906000526020600020905b81548152906001019060200180831161038a57829003601f168201915b505050505081565b60025481565b600680546103c290610e6b565b80601f01602080910402602001604051908101604052809291908181526020018280546103ee90610e6b565b801561043b5780601f106104105761010080835404028352916020019161043b565b820191906000526020600020905b81548152906001019060200180831161041e57829003601f168201915b505050505081565b60015460035410610487576002600760006101000a81548160ff0219169083600281111561047457610473610d2d565b5b02179055506104816109ae565b506104be565b6004544211156104bd576001600760006101000a81548160ff021916908360028111156104b7576104b6610d2d565b5b02179055505b5b42600281905550565b600060018060028111156104de576104dd610d2d565b5b600760009054906101000a900460ff166002811115610500576104ff610d2d565b5b1461050a57600080fd5b6000600860003373ffffffffffffffffffffffffffffffffffffffff1673ffffffffffffffffffffffffffffffffffffffff168152602001908152602001600020541161055657600080fd5b6000600860003373ffffffffffffffffffffffffffffffffffffffff1673ffffffffffffffffffffffffffffffffffffffff1681526020019081526020016000205490506000600860003373ffffffffffffffffffffffffffffffffffffffff1673ffffffffffffffffffffffffffffffffffffffff1681526020019081526020016000208190555060003390508073ffffffffffffffffffffffffffffffffffffffff166108fc839081150290604051600060405180830381858888f1935050505061066c5781600860003373ffffffffffffffffffffffffffffffffffffffff1673ffffffffffffffffffffffffffffffffffffffff1681526020019081526020016000208190555060009350505061068e565b61068182600354610af790919063ffffffff16565b6003819055506001935050505b5090565b600760009054906101000a900460ff1681565b60035481565b60008060028111156106c0576106bf610d2d565b5b600760009054906101000a900460ff1660028111156106e2576106e1610d2d565b5b146106ec57600080fd5b60008054906101000a900473ffffffffffffffffffffffffffffffffffffffff1673ffffffffffffffffffffffffffffffffffffffff163373ffffffffffffffffffffffffffffffffffffffff160361074457600080fd5b61079634600860003373ffffffffffffffffffffffffffffffffffffffff1673ffffffffffffffffffffffffffffffffffffffff16815260200190815260200160002054610b1e90919063ffffffff16565b600860003373ffffffffffffffffffffffffffffffffffffffff1673ffffffffffffffffffffffffffffffffffffffff168152602001908152602001600020819055506107ee34600354610b1e90919063ffffffff16565b6003819055507f5cdc4ab8d637538ead6cc1904d4160343656c8c82bd266635cfd31ac008fffe0333460035460405161082993929190610eab565b60405180910390a1610839610443565b50565b600060608060008060008060008054906101000a900473ffffffffffffffffffffffffffffffffffffffff1696506005805461087790610e6b565b80601f01602080910402602001604051908101604052809291908181526020018280546108a390610e6b565b80156108f05780601f106108c5576101008083540402835291602001916108f0565b820191906000526020600020905b8154815290600101906020018083116108d357829003601f168201915b505050505095506006805461090490610e6b565b80601f016020809104026020016040519081016040528092919081815260200182805461093090610e6b565b801561097d5780601f106109525761010080835404028352916020019161097d565b820191906000526020600020905b81548152906001019060200180831161096057829003601f168201915b505050505094506004549350600760009054906101000a900460ff1692506003549150600154905090919293949596565b600060028060028111156109c5576109c4610d2d565b5b600760009054906101000a900460ff1660028111156109e7576109e6610d2d565b5b146109f157600080fd5b60006003549050600060038190555060008054906101000a900473ffffffffffffffffffffffffffffffffffffffff1673ffffffffffffffffffffffffffffffffffffffff166108fc829081150290604051600060405180830381858888f1935050505015610abb577f2f256415efc8561af8db667cb242964b19be7380f379ccdafaa0e54a6f6b706960008054906101000a900473ffffffffffffffffffffffffffffffffffffffff16604051610aa99190610f41565b60405180910390a16001925050610af3565b806003819055506002600760006101000a81548160ff02191690836002811115610ae857610ae7610d2d565b5b021790555060009250505b5090565b600082821115610b0a57610b09610f5c565b5b8183610b169190610fba565b905092915050565b60008183610b2c9190610fee565b905082811015610b3f57610b3e610f5c565b5b92915050565b600073ffffffffffffffffffffffffffffffffffffffff82169050919050565b6000610b7082610b45565b9050919050565b610b8081610b65565b82525050565b6000602082019050610b9b6000830184610b77565b92915050565b6000819050919050565b610bb481610ba1565b82525050565b6000602082019050610bcf6000830184610bab565b92915050565b600080fd5b6000610be582610b45565b9050919050565b610bf581610bda565b8114610c0057600080fd5b50565b600081359050610c1281610bec565b92915050565b600060208284031215610c2e57610c2d610bd5565b5b6000610c3c84828501610c03565b91505092915050565b600081519050919050565b600082825260208201905092915050565b60005b83811015610c7f578082015181840152602081019050610c64565b60008484015250505050565b6000601f19601f8301169050919050565b6000610ca782610c45565b610cb18185610c50565b9350610cc1818560208601610c61565b610cca81610c8b565b840191505092915050565b60006020820190508181036000830152610cef8184610c9c565b905092915050565b60008115159050919050565b610d0c81610cf7565b82525050565b6000602082019050610d276000830184610d03565b92915050565b7f4e487b7100000000000000000000000000000000000000000000000000000000600052602160045260246000fd5b60038110610d6d57610d6c610d2d565b5b50565b6000819050610d7e82610d5c565b919050565b6000610d8e82610d70565b9050919050565b610d9e81610d83565b82525050565b6000602082019050610db96000830184610d95565b92915050565b600060e082019050610dd4600083018a610b77565b8181036020830152610de68189610c9c565b90508181036040830152610dfa8188610c9c565b9050610e096060830187610bab565b610e166080830186610d95565b610e2360a0830185610bab565b610e3060c0830184610bab565b98975050505050505050565b7f4e487b7100000000000000000000000000000000000000000000000000000000600052602260045260246000fd5b60006002820490506001821680610e8357607f821691505b602082108103610e9657610e95610e3c565b5b50919050565b610ea581610bda565b82525050565b6000606082019050610ec06000830186610e9c565b610ecd6020830185610bab565b610eda6040830184610bab565b949350505050565b6000819050919050565b6000610f07610f02610efd84610b45565b610ee2565b610b45565b9050919050565b6000610f1982610eec565b9050919050565b6000610f2b82610f0e565b9050919050565b610f3b81610f20565b82525050565b6000602082019050610f566000830184610f32565b92915050565b7f4e487b7100000000000000000000000000000000000000000000000000000000600052600160045260246000fd5b7f4e487b7100000000000000000000000000000000000000000000000000000000600052601160045260246000fd5b6000610fc582610ba1565b9150610fd083610ba1565b9250828203905081811115610fe857610fe7610f8b565b5b92915050565b6000610ff982610ba1565b915061100483610ba1565b925082820190508082111561101c5761101b610f8b565b5b9291505056fea26469706673582212205cf4abbc55155a1d2c8b1f9afac5ccc7d1833359262340268d84af3da373386464736f6c63430008140033",
  "linkReferences": {},
  "deployedLinkReferences": {}
}